{
  "abi": [
    {
      "type": "constructor",
      "inputs": [],
      "stateMutability": "nonpayable"
    },
    {
      "type": "function",
      "name": "agentCount",
      "inputs": [],
      "outputs": [
        {
          "name": "",
          "type": "uint256",
          "internalType": "uint256"
        }
      ],
      "stateMutability": "view"
    },
    {
      "type": "function",
      "name": "agents",
      "inputs": [
        {
          "name": "",
          "type": "bytes32",
          "internalType": "bytes32"
        }
      ],
      "outputs": [
        {
          "name": "owner",
          "type": "address",
          "internalType": "address"
        },
        {
          "name": "targetContract",
          "type": "address",
          "internalType": "address"
        },
        {
          "name": "name",
          "type": "string",
          "internalType": "string"
        },
        {
          "name": "configIPFS",
          "type": "string",
          "internalType": "string"
        },
        {
          "name": "active",
          "type": "bool",
          "internalType": "bool"
        },
        {
          "name": "createdAt",
          "type": "uint256",
          "internalType": "uint256"
        },
        {
          "name": "updatedAt",
          "type": "uint256",
          "internalType": "uint256"
        }
      ],
      "stateMutability": "view"
    },
    {
      "type": "function",
      "name": "agentsByContract",
      "inputs": [
        {
          "name": "",
          "type": "address",
          "internalType": "address"
        },
        {
          "name": "",
          "type": "uint256",
          "internalType": "uint256"
        }
      ],
      "outputs": [
        {
          "name": "",
          "type": "bytes32",
          "internalType": "bytes32"
        }
      ],
      "stateMutability": "view"
    },
    {
      "type": "function",
      "name": "agentsByOwner",
      "inputs": [
        {
          "name": "",
          "type": "address",
          "internalType": "address"
        },
        {
          "name": "",
          "type": "uint256",
          "internalType": "uint256"
        }
      ],
      "outputs": [
        {
          "name": "",
          "type": "bytes32",
          "internalType": "bytes32"
        }
      ],
      "stateMutability": "view"
    },
    {
      "type": "function",
      "name": "deactivateAgent",
      "inputs": [
        {
          "name": "agentId",
          "type": "bytes32",
          "internalType": "bytes32"
        }
      ],
      "outputs": [],
      "stateMutability": "nonpayable"
    },
    {
      "type": "function",
      "name": "getAgent",
      "inputs": [
        {
          "name": "agentId",
          "type": "bytes32",
          "internalType": "bytes32"
        }
      ],
      "outputs": [
        {
          "name": "agent",
          "type": "tuple",
          "internalType": "struct AgentRegistry.Agent",
          "components": [
            {
              "name": "owner",
              "type": "address",
              "internalType": "address"
            },
            {
              "name": "targetContract",
              "type": "address",
              "internalType": "address"
            },
            {
              "name": "name",
              "type": "string",
              "internalType": "string"
            },
            {
              "name": "configIPFS",
              "type": "string",
              "internalType": "string"
            },
            {
              "name": "active",
              "type": "bool",
              "internalType": "bool"
            },
            {
              "name": "createdAt",
              "type": "uint256",
              "internalType": "uint256"
            },
            {
              "name": "updatedAt",
              "type": "uint256",
              "internalType": "uint256"
            }
          ]
        }
      ],
      "stateMutability": "view"
    },
    {
      "type": "function",
      "name": "getAgentOwner",
      "inputs": [
        {
          "name": "agentId",
          "type": "bytes32",
          "internalType": "bytes32"
        }
      ],
      "outputs": [
        {
          "name": "",
          "type": "address",
          "internalType": "address"
        }
      ],
      "stateMutability": "view"
    },
    {
      "type": "function",
      "name": "getAgentTarget",
      "inputs": [
        {
          "name": "agentId",
          "type": "bytes32",
          "internalType": "bytes32"
        }
      ],
      "outputs": [
        {
          "name": "",
          "type": "address",
          "internalType": "address"
        }
      ],
      "stateMutability": "view"
    },
    {
      "type": "function",
      "name": "getAgentsByContract",
      "inputs": [
        {
          "name": "contractAddr",
          "type": "address",
          "internalType": "address"
        }
      ],
      "outputs": [
        {
          "name": "",
          "type": "bytes32[]",
          "internalType": "bytes32[]"
        }
      ],
      "stateMutability": "view"
    },
    {
      "type": "function",
      "name": "getAgentsByOwner",
      "inputs": [
        {
          "name": "owner",
          "type": "address",
          "internalType": "address"
        }
      ],
      "outputs": [
        {
          "name": "",
          "type": "bytes32[]",
          "internalType": "bytes32[]"
        }
      ],
      "stateMutability": "view"
    },
    {
      "type": "function",
      "name": "isAgentActive",
      "inputs": [
        {
          "name": "agentId",
          "type": "bytes32",
          "internalType": "bytes32"
        }
      ],
      "outputs": [
        {
          "name": "",
          "type": "bool",
          "internalType": "bool"
        }
      ],
      "stateMutability": "view"
    },
    {
      "type": "function",
      "name": "owner",
      "inputs": [],
      "outputs": [
        {
          "name": "",
          "type": "address",
          "internalType": "address"
        }
      ],
      "stateMutability": "view"
    },
    {
      "type": "function",
      "name": "reactivateAgent",
      "inputs": [
        {
          "name": "agentId",
          "type": "bytes32",
          "internalType": "bytes32"
        }
      ],
      "outputs": [],
      "stateMutability": "nonpayable"
    },
    {
      "type": "function",
      "name": "registerAgent",
      "inputs": [
        {
          "name": "targetContract",
          "type": "address",
          "internalType": "address"
        },
        {
          "name": "name",
          "type": "string",
          "internalType": "string"
        },
        {
          "name": "configIPFS",
          "type": "string",
          "internalType": "string"
        }
      ],
      "outputs": [
        {
          "name": "agentId",
          "type": "bytes32",
          "internalType": "bytes32"
        }
      ],
      "stateMutability": "nonpayable"
    },
    {
      "type": "function",
      "name": "renounceOwnership",
      "inputs": [],
      "outputs": [],
      "stateMutability": "nonpayable"
    },
    {
      "type": "function",
      "name": "transferOwnership",
      "inputs": [
        {
          "name": "newOwner",
          "type": "address",
          "internalType": "address"
        }
      ],
      "outputs": [],
      "stateMutability": "nonpayable"
    },
    {
      "type": "function",
      "name": "updateAgent",
      "inputs": [
        {
          "name": "agentId",
          "type": "bytes32",
          "internalType": "bytes32"
        },
        {
          "name": "configIPFS",
          "type": "string",
          "internalType": "string"
        }
      ],
      "outputs": [],
      "stateMutability": "nonpayable"
    },
    {
      "type": "event",
      "name": "AgentDeactivated",
      "inputs": [
        {
          "name": "agentId",
          "type": "bytes32",
          "indexed": true,
          "internalType": "bytes32"
        }
      ],
      "anonymous": false
    },
    {
      "type": "event",
      "name": "AgentReactivated",
      "inputs": [
        {
          "name": "agentId",
          "type": "bytes32",
          "indexed": true,
          "internalType": "bytes32"
        }
      ],
      "anonymous": false
    },
    {
      "type": "event",
      "name": "AgentRegistered",
      "inputs": [
        {
          "name": "agentId",
          "type": "bytes32",
          "indexed": true,
          "internalType": "bytes32"
        },
        {
          "name": "owner",
          "type": "address",
          "indexed": true,
          "internalType": "address"
        },
        {
          "name": "targetContract",
          "type": "address",
          "indexed": true,
          "internalType": "address"
        },
        {
          "name": "name",
          "type": "string",
          "indexed": false,
          "internalType": "string"
        }
      ],
      "anonymous": false
    },
    {
      "type": "event",
      "name": "AgentUpdated",
      "inputs": [
        {
          "name": "agentId",
          "type": "bytes32",
          "indexed": true,
          "internalType": "bytes32"
        },
        {
          "name": "configIPFS",
          "type": "string",
          "indexed": false,
          "internalType": "string"
        }
      ],
      "anonymous": false
    },
    {
      "type": "event",
      "name": "OwnershipTransferred",
      "inputs": [
        {
          "name": "previousOwner",
          "type": "address",
          "indexed": true,
          "internalType": "address"
        },
        {
          "name": "newOwner",
          "type": "address",
          "indexed": true,
          "internalType": "address"
        }
      ],
      "anonymous": false
    },
    {
      "type": "error",
      "name": "AgentAlreadyExists",
      "inputs": []
    },
    {
      "type": "error",
      "name": "AgentNotFound",
      "inputs": []
    },
    {
      "type": "error",
      "name": "ConfigRequired",
      "inputs": []
    },
    {
      "type": "error",
      "name": "InvalidTarget",
      "inputs": []
    },
    {
      "type": "error",
      "name": "NameRequired",
      "inputs": []
    },
    {
      "type": "error",
      "name": "NotAgentOwner",
      "inputs": []
    },
    {
      "type": "error",
      "name": "OwnableInvalidOwner",
      "inputs": [
        {
          "name": "owner",
          "type": "address",
          "internalType": "address"
        }
      ]
    },
    {
      "type": "error",
      "name": "OwnableUnauthorizedAccount",
      "inputs": [
        {
          "name": "account",
          "type": "address",
          "internalType": "address"
        }
      ]
    },
    {
      "type": "error",
      "name": "ReentrancyGuardReentrantCall",
      "inputs": []
    }
  ],
  "bytecode": {
    "object": "0x6080806040523460755733156062575f8054336001600160a01b0319821681178355916001600160a01b03909116907f8be0079c531659141344cd1fd0a4f28419497f9722a3daafe3b4186f6b6457e09080a360018055610ffe908161007a8239f35b631e4fbdf760e01b5f525f60045260245ffd5b5f80fdfe6080806040526004361015610012575f80fd5b5f3560e01c9081630b55fc7014610c9c575080631ab6f88814610c2a5780632e20ee1814610b7e5780633d8c2c2b14610b0b57806359b5acf314610a9b578063715018a614610a445780637216fe481461062b578063768eb96f146105e25780637aecc40a1461058a5780638a92792b146105585780638da5cb5b146105315780639f4abdef146104af578063a6c2af0114610375578063b7dc128414610358578063d61fed1314610326578063f2fde38b146102a15763f8e66c6e146100d7575f80fd5b3461029d57604036600319011261029d5760043560243567ffffffffffffffff811161029d5761010b903690600401610e56565b5f8381526002602052604090208054909392906001600160a01b0316801561028e57330361027f57811561027057600384019367ffffffffffffffff831161025c576101618361015b8754610d1c565b87610ef3565b5f94601f84116001146101d8576101b084807f1f4703d97a7ba241088b5d647231164887793dc56fcab7fa8661dd86eea1112d97985f916101cd575b508160011b915f199060031b1c19161790565b90555b6006429101556101c860405192839283610f7b565b0390a2005b90508501355f61019d565b601f19841695815f5260205f20965f5b818110610244575090857f1f4703d97a7ba241088b5d647231164887793dc56fcab7fa8661dd86eea1112d9798921061022b575b5050600184811b0190556101b3565b8401355f19600387901b60f8161c191690555f8061021c565b858301358955600190980197602092830192016101e8565b634e487b7160e01b5f52604160045260245ffd5b636872cdc960e11b5f5260045ffd5b630e41dcbf60e21b5f5260045ffd5b63e93ba22360e01b5f5260045ffd5b5f80fd5b3461029d57602036600319011261029d576102ba610ccd565b6102c2610fa2565b6001600160a01b03168015610313575f80546001600160a01b03198116831782556001600160a01b0316907f8be0079c531659141344cd1fd0a4f28419497f9722a3daafe3b4186f6b6457e09080a3005b631e4fbdf760e01b5f525f60045260245ffd5b3461029d57602036600319011261029d576004355f526002602052602060018060a01b0360405f205416604051908152f35b3461029d575f36600319011261029d576020600554604051908152f35b3461029d57602036600319011261029d575f60c060405161039581610d54565b828152826020820152606060408201526060808201528260808201528260a082015201526004355f52600260205260405f206040516103d381610d54565b81546001600160a01b03908116825260018301541660208201908152916103fc60028201610d92565b6040830190815261040f60038301610d92565b916060840192835261049660ff60048301541693608086019415158552610483600660058501549460a0890195865201549460c0880195865260405198899860208a5260018060a01b0390511660208a015260018060a01b0390511660408901525160e06060890152610100880190610e32565b9051868203601f19016080880152610e32565b9251151560a08501525160c08401525160e08301520390f35b3461029d57602036600319011261029d576001600160a01b036104d0610ccd565b165f52600460205260405f206040519081602082549182815201915f5260205f20905f5b81811061051b576105178561050b81870382610d70565b60405191829182610ce3565b0390f35b82548452602090930192600192830192016104f4565b3461029d575f36600319011261029d575f546040516001600160a01b039091168152602090f35b3461029d57602036600319011261029d576004355f526002602052602060ff600460405f200154166040519015158152f35b3461029d57604036600319011261029d576105a3610ccd565b6001600160a01b03165f9081526004602052604090208054602435919082101561029d576020916105d391610e84565b90549060031b1c604051908152f35b3461029d57604036600319011261029d576105fb610ccd565b6001600160a01b03165f9081526003602052604090208054602435919082101561029d576020916105d391610e84565b3461029d57606036600319011261029d57610644610ccd565b60243567ffffffffffffffff811161029d57610664903690600401610e56565b9160443567ffffffffffffffff811161029d57610685903690600401610e56565b600260019492945414610a355760026001556001600160a01b038316928315610a26578515610a1757811561027057600554610708604060488151809460208201963360601b88526bffffffffffffffffffffffff199060601b1660348301528b89848401378b8201904284830152606882015203016020810184520182610d70565b5190205f818152600260205260409020549094906001600160a01b0316610a08576040519161073683610d54565b33835261075e602084019286845261074f368a88610ead565b92604086019384523691610ead565b606084019081526001608085018181524260a0870181815260c088019182525f8b8152600260208190526040909120985189546001600160a01b03199081166001600160a01b03928316178b559851958a018054909916951694909417909655935180519495949193928701919067ffffffffffffffff821161025c576107ef826107e98554610d1c565b85610ef3565b602090601f83116001146109a55761081e92915f9183610931575b50508160011b915f199060031b1c19161790565b90555b518051600386019167ffffffffffffffff821161025c57610846826107e98554610d1c565b602090601f831160011461093c57918061087b92600698979695945f926109315750508160011b915f199060031b1c19161790565b90555b600485019051151560ff8019835416911617905551600584015551910155335f5260036020526108b18360405f20610f42565b815f5260046020526108c68360405f20610f42565b6005545f19811461091d577f9f9f1d43f9495171fe1da88eed7d9a7a4dfe60dbbaa48011d5a34e088951968461090e6020966001879401600555604051918291339683610f7b565b0390a460018055604051908152f35b634e487b7160e01b5f52601160045260245ffd5b015190508d8061080a565b90601f19831691845f52815f20925f5b81811061098d575091600193918560069a999897969410610975575b505050811b01905561087e565b01515f1960f88460031b161c191690558c8080610968565b9293602060018192878601518155019501930161094c565b90601f19831691845f52815f20925f5b8181106109f057509084600195949392106109d8575b505050811b019055610821565b01515f1960f88460031b161c191690558c80806109cb565b929360206001819287860151815501950193016109b5565b630d82532d60e21b5f5260045ffd5b636cc61e7360e11b5f5260045ffd5b63416aebb560e11b5f5260045ffd5b633ee5aeb560e01b5f5260045ffd5b3461029d575f36600319011261029d57610a5c610fa2565b5f80546001600160a01b0319811682556001600160a01b03167f8be0079c531659141344cd1fd0a4f28419497f9722a3daafe3b4186f6b6457e08280a3005b3461029d57602036600319011261029d576004355f81815260026020526040902080546001600160a01b0316801561028e57330361027f576004810160ff1981541690556006429101557f83fa9a5555770ebb043d9ef83dd2d496875b8a91e0b595e5ce06520ba75187ad5f80a2005b3461029d57602036600319011261029d576004355f81815260026020526040902080546001600160a01b0316801561028e57330361027f5760048101600160ff198254161790556006429101557f0404d5081a399729874abb3ab628d6da9f03c8965b61a345319678a5f7952cc55f80a2005b3461029d57602036600319011261029d576004355f52600260205260405f2060018060a01b0381541660018060a01b0360018301541691610bc160028201610d92565b610bcd60038301610d92565b91610c1460ff60048301541693610c0660066005850154940154946040519889988952602089015260e0604089015260e0880190610e32565b908682036060880152610e32565b921515608085015260a084015260c08301520390f35b3461029d57602036600319011261029d576001600160a01b03610c4b610ccd565b165f52600360205260405f206040519081602082549182815201915f5260205f20905f5b818110610c86576105178561050b81870382610d70565b8254845260209093019260019283019201610c6f565b3461029d57602036600319011261029d576020906004355f526002825260018060a01b03600160405f200154168152f35b600435906001600160a01b038216820361029d57565b60206040818301928281528451809452019201905f5b818110610d065750505090565b8251845260209384019390920191600101610cf9565b90600182811c92168015610d4a575b6020831014610d3657565b634e487b7160e01b5f52602260045260245ffd5b91607f1691610d2b565b60e0810190811067ffffffffffffffff82111761025c57604052565b90601f8019910116810190811067ffffffffffffffff82111761025c57604052565b9060405191825f825492610da584610d1c565b8084529360018116908115610e105750600114610dcc575b50610dca92500383610d70565b565b90505f9291925260205f20905f915b818310610df4575050906020610dca928201015f610dbd565b6020919350806001915483858901015201910190918492610ddb565b905060209250610dca94915060ff191682840152151560051b8201015f610dbd565b805180835260209291819084018484015e5f828201840152601f01601f1916010190565b9181601f8401121561029d5782359167ffffffffffffffff831161029d576020838186019501011161029d57565b8054821015610e99575f5260205f2001905f90565b634e487b7160e01b5f52603260045260245ffd5b92919267ffffffffffffffff821161025c5760405191610ed7601f8201601f191660200184610d70565b82948184528183011161029d578281602093845f960137010152565b601f8211610f0057505050565b5f5260205f20906020601f840160051c83019310610f38575b601f0160051c01905b818110610f2d575050565b5f8155600101610f22565b9091508190610f19565b80546801000000000000000081101561025c57610f6491600182018155610e84565b819291549060031b91821b915f19901b1916179055565b90918060409360208452816020850152848401375f828201840152601f01601f1916010190565b5f546001600160a01b03163303610fb557565b63118cdaa760e01b5f523360045260245ffdfea2646970667358221220a75ec35b7b7c4a739c89fddb870ec91529b476824ec86d05930a53f2a7218e9764736f6c634300081c0033",
    "linkReferences": {}
  },
  "methodIdentifiers": {
    "agentCount()": "b7dc1284",
    "agents(bytes32)": "2e20ee18",
    "agentsByContract(address,uint256)": "7aecc40a",
    "agentsByOwner(address,uint256)": "768eb96f",
    "deactivateAgent(bytes32)": "59b5acf3",
    "getAgent(bytes32)": "a6c2af01",
    "getAgentOwner(bytes32)": "d61fed13",
    "getAgentTarget(bytes32)": "0b55fc70",
    "getAgentsByContract(address)": "9f4abdef",
    "getAgentsByOwner(address)": "1ab6f888",
    "isAgentActive(bytes32)": "8a92792b",
    "owner()": "8da5cb5b",
    "reactivateAgent(bytes32)": "3d8c2c2b",
    "registerAgent(address,string,string)": "7216fe48",
    "renounceOwnership()": "715018a6",
    "transferOwnership(address)": "f2fde38b",
    "updateAgent(bytes32,string)": "f8e66c6e"
  },
  "id": 29
}