{
  "abi": [
    {
      "type": "constructor",
      "inputs": [
        {
          "name": "_agentRegistry",
          "type": "address",
          "internalType": "address"
        },
        {
          "name": "_feeCollector",
          "type": "address",
          "internalType": "address"
        }
      ],
      "stateMutability": "nonpayable"
    },
    {
      "type": "function",
      "name": "MAX_CALLS_PER_WINDOW",
      "inputs": [],
      "outputs": [
        {
          "name": "",
          "type": "uint256",
          "internalType": "uint256"
        }
      ],
      "stateMutability": "view"
    },
    {
      "type": "function",
      "name": "RATE_LIMIT_WINDOW",
      "inputs": [],
      "outputs": [
        {
          "name": "",
          "type": "uint256",
          "internalType": "uint256"
        }
      ],
      "stateMutability": "view"
    },
    {
      "type": "function",
      "name": "agentCallCount",
      "inputs": [
        {
          "name": "",
          "type": "bytes32",
          "internalType": "bytes32"
        }
      ],
      "outputs": [
        {
          "name": "",
          "type": "uint256",
          "internalType": "uint256"
        }
      ],
      "stateMutability": "view"
    },
    {
      "type": "function",
      "name": "agentGasUsed",
      "inputs": [
        {
          "name": "",
          "type": "bytes32",
          "internalType": "bytes32"
        }
      ],
      "outputs": [
        {
          "name": "",
          "type": "uint256",
          "internalType": "uint256"
        }
      ],
      "stateMutability": "view"
    },
    {
      "type": "function",
      "name": "agentRegistry",
      "inputs": [],
      "outputs": [
        {
          "name": "",
          "type": "address",
          "internalType": "contract AgentRegistry"
        }
      ],
      "stateMutability": "view"
    },
    {
      "type": "function",
      "name": "authorizeFunction",
      "inputs": [
        {
          "name": "agentId",
          "type": "bytes32",
          "internalType": "bytes32"
        },
        {
          "name": "targetContract",
          "type": "address",
          "internalType": "address"
        },
        {
          "name": "functionSelector",
          "type": "bytes4",
          "internalType": "bytes4"
        }
      ],
      "outputs": [],
      "stateMutability": "nonpayable"
    },
    {
      "type": "function",
      "name": "authorizedFunctions",
      "inputs": [
        {
          "name": "",
          "type": "bytes32",
          "internalType": "bytes32"
        },
        {
          "name": "",
          "type": "address",
          "internalType": "address"
        },
        {
          "name": "",
          "type": "bytes4",
          "internalType": "bytes4"
        }
      ],
      "outputs": [
        {
          "name": "",
          "type": "bool",
          "internalType": "bool"
        }
      ],
      "stateMutability": "view"
    },
    {
      "type": "function",
      "name": "batchAuthorize",
      "inputs": [
        {
          "name": "agentId",
          "type": "bytes32",
          "internalType": "bytes32"
        },
        {
          "name": "targetContract",
          "type": "address",
          "internalType": "address"
        },
        {
          "name": "functionSelectors",
          "type": "bytes4[]",
          "internalType": "bytes4[]"
        }
      ],
      "outputs": [],
      "stateMutability": "nonpayable"
    },
    {
      "type": "function",
      "name": "executeOnTarget",
      "inputs": [
        {
          "name": "agentId",
          "type": "bytes32",
          "internalType": "bytes32"
        },
        {
          "name": "targetContract",
          "type": "address",
          "internalType": "address"
        },
        {
          "name": "callData",
          "type": "bytes",
          "internalType": "bytes"
        }
      ],
      "outputs": [
        {
          "name": "",
          "type": "bytes",
          "internalType": "bytes"
        }
      ],
      "stateMutability": "payable"
    },
    {
      "type": "function",
      "name": "executionHistory",
      "inputs": [
        {
          "name": "",
          "type": "bytes32",
          "internalType": "bytes32"
        },
        {
          "name": "",
          "type": "uint256",
          "internalType": "uint256"
        }
      ],
      "outputs": [
        {
          "name": "user",
          "type": "address",
          "internalType": "address"
        },
        {
          "name": "functionSelector",
          "type": "bytes4",
          "internalType": "bytes4"
        },
        {
          "name": "timestamp",
          "type": "uint256",
          "internalType": "uint256"
        },
        {
          "name": "gasUsed",
          "type": "uint256",
          "internalType": "uint256"
        },
        {
          "name": "success",
          "type": "bool",
          "internalType": "bool"
        }
      ],
      "stateMutability": "view"
    },
    {
      "type": "function",
      "name": "feeCollector",
      "inputs": [],
      "outputs": [
        {
          "name": "",
          "type": "address",
          "internalType": "address"
        }
      ],
      "stateMutability": "view"
    },
    {
      "type": "function",
      "name": "getAgentAnalytics",
      "inputs": [
        {
          "name": "agentId",
          "type": "bytes32",
          "internalType": "bytes32"
        }
      ],
      "outputs": [
        {
          "name": "totalCalls",
          "type": "uint256",
          "internalType": "uint256"
        },
        {
          "name": "totalGasUsed",
          "type": "uint256",
          "internalType": "uint256"
        },
        {
          "name": "avgGasPerCall",
          "type": "uint256",
          "internalType": "uint256"
        }
      ],
      "stateMutability": "view"
    },
    {
      "type": "function",
      "name": "getExecutionHistory",
      "inputs": [
        {
          "name": "agentId",
          "type": "bytes32",
          "internalType": "bytes32"
        }
      ],
      "outputs": [
        {
          "name": "",
          "type": "tuple[]",
          "internalType": "struct ContractMindHubV2.ExecutionContext[]",
          "components": [
            {
              "name": "user",
              "type": "address",
              "internalType": "address"
            },
            {
              "name": "functionSelector",
              "type": "bytes4",
              "internalType": "bytes4"
            },
            {
              "name": "timestamp",
              "type": "uint256",
              "internalType": "uint256"
            },
            {
              "name": "gasUsed",
              "type": "uint256",
              "internalType": "uint256"
            },
            {
              "name": "success",
              "type": "bool",
              "internalType": "bool"
            }
          ]
        }
      ],
      "stateMutability": "view"
    },
    {
      "type": "function",
      "name": "getRateLimitInfo",
      "inputs": [
        {
          "name": "user",
          "type": "address",
          "internalType": "address"
        },
        {
          "name": "agentId",
          "type": "bytes32",
          "internalType": "bytes32"
        }
      ],
      "outputs": [
        {
          "name": "callCount",
          "type": "uint256",
          "internalType": "uint256"
        },
        {
          "name": "resetTime",
          "type": "uint256",
          "internalType": "uint256"
        },
        {
          "name": "isLimited",
          "type": "bool",
          "internalType": "bool"
        }
      ],
      "stateMutability": "view"
    },
    {
      "type": "function",
      "name": "isFunctionAuthorized",
      "inputs": [
        {
          "name": "agentId",
          "type": "bytes32",
          "internalType": "bytes32"
        },
        {
          "name": "targetContract",
          "type": "address",
          "internalType": "address"
        },
        {
          "name": "functionSelector",
          "type": "bytes4",
          "internalType": "bytes4"
        }
      ],
      "outputs": [
        {
          "name": "",
          "type": "bool",
          "internalType": "bool"
        }
      ],
      "stateMutability": "view"
    },
    {
      "type": "function",
      "name": "owner",
      "inputs": [],
      "outputs": [
        {
          "name": "",
          "type": "address",
          "internalType": "address"
        }
      ],
      "stateMutability": "view"
    },
    {
      "type": "function",
      "name": "pause",
      "inputs": [],
      "outputs": [],
      "stateMutability": "nonpayable"
    },
    {
      "type": "function",
      "name": "paused",
      "inputs": [],
      "outputs": [
        {
          "name": "",
          "type": "bool",
          "internalType": "bool"
        }
      ],
      "stateMutability": "view"
    },
    {
      "type": "function",
      "name": "protocolFeeBps",
      "inputs": [],
      "outputs": [
        {
          "name": "",
          "type": "uint256",
          "internalType": "uint256"
        }
      ],
      "stateMutability": "view"
    },
    {
      "type": "function",
      "name": "queryTarget",
      "inputs": [
        {
          "name": "agentId",
          "type": "bytes32",
          "internalType": "bytes32"
        },
        {
          "name": "targetContract",
          "type": "address",
          "internalType": "address"
        },
        {
          "name": "callData",
          "type": "bytes",
          "internalType": "bytes"
        }
      ],
      "outputs": [
        {
          "name": "",
          "type": "bytes",
          "internalType": "bytes"
        }
      ],
      "stateMutability": "view"
    },
    {
      "type": "function",
      "name": "recordTransaction",
      "inputs": [
        {
          "name": "agentId",
          "type": "bytes32",
          "internalType": "bytes32"
        },
        {
          "name": "targetContract",
          "type": "address",
          "internalType": "address"
        },
        {
          "name": "functionSelector",
          "type": "bytes4",
          "internalType": "bytes4"
        },
        {
          "name": "success",
          "type": "bool",
          "internalType": "bool"
        },
        {
          "name": "gasUsed",
          "type": "uint256",
          "internalType": "uint256"
        }
      ],
      "outputs": [],
      "stateMutability": "nonpayable"
    },
    {
      "type": "function",
      "name": "renounceOwnership",
      "inputs": [],
      "outputs": [],
      "stateMutability": "nonpayable"
    },
    {
      "type": "function",
      "name": "revokeFunction",
      "inputs": [
        {
          "name": "agentId",
          "type": "bytes32",
          "internalType": "bytes32"
        },
        {
          "name": "targetContract",
          "type": "address",
          "internalType": "address"
        },
        {
          "name": "functionSelector",
          "type": "bytes4",
          "internalType": "bytes4"
        }
      ],
      "outputs": [],
      "stateMutability": "nonpayable"
    },
    {
      "type": "function",
      "name": "setFeeCollector",
      "inputs": [
        {
          "name": "newCollector",
          "type": "address",
          "internalType": "address"
        }
      ],
      "outputs": [],
      "stateMutability": "nonpayable"
    },
    {
      "type": "function",
      "name": "setProtocolFee",
      "inputs": [
        {
          "name": "newFeeBps",
          "type": "uint256",
          "internalType": "uint256"
        }
      ],
      "outputs": [],
      "stateMutability": "nonpayable"
    },
    {
      "type": "function",
      "name": "transferOwnership",
      "inputs": [
        {
          "name": "newOwner",
          "type": "address",
          "internalType": "address"
        }
      ],
      "outputs": [],
      "stateMutability": "nonpayable"
    },
    {
      "type": "function",
      "name": "trustedCallers",
      "inputs": [
        {
          "name": "",
          "type": "address",
          "internalType": "address"
        }
      ],
      "outputs": [
        {
          "name": "",
          "type": "bool",
          "internalType": "bool"
        }
      ],
      "stateMutability": "view"
    },
    {
      "type": "function",
      "name": "unpause",
      "inputs": [],
      "outputs": [],
      "stateMutability": "nonpayable"
    },
    {
      "type": "function",
      "name": "validateTransaction",
      "inputs": [
        {
          "name": "agentId",
          "type": "bytes32",
          "internalType": "bytes32"
        },
        {
          "name": "targetContract",
          "type": "address",
          "internalType": "address"
        },
        {
          "name": "functionSelector",
          "type": "bytes4",
          "internalType": "bytes4"
        }
      ],
      "outputs": [
        {
          "name": "authorized",
          "type": "bool",
          "internalType": "bool"
        }
      ],
      "stateMutability": "view"
    },
    {
      "type": "event",
      "name": "FeeCollectorUpdated",
      "inputs": [
        {
          "name": "newCollector",
          "type": "address",
          "indexed": false,
          "internalType": "address"
        }
      ],
      "anonymous": false
    },
    {
      "type": "event",
      "name": "FunctionAuthorized",
      "inputs": [
        {
          "name": "agentId",
          "type": "bytes32",
          "indexed": true,
          "internalType": "bytes32"
        },
        {
          "name": "targetContract",
          "type": "address",
          "indexed": true,
          "internalType": "address"
        },
        {
          "name": "functionSelector",
          "type": "bytes4",
          "indexed": false,
          "internalType": "bytes4"
        }
      ],
      "anonymous": false
    },
    {
      "type": "event",
      "name": "FunctionExecuted",
      "inputs": [
        {
          "name": "agentId",
          "type": "bytes32",
          "indexed": true,
          "internalType": "bytes32"
        },
        {
          "name": "user",
          "type": "address",
          "indexed": true,
          "internalType": "address"
        },
        {
          "name": "targetContract",
          "type": "address",
          "indexed": true,
          "internalType": "address"
        },
        {
          "name": "functionSelector",
          "type": "bytes4",
          "indexed": false,
          "internalType": "bytes4"
        },
        {
          "name": "success",
          "type": "bool",
          "indexed": false,
          "internalType": "bool"
        },
        {
          "name": "returnData",
          "type": "bytes",
          "indexed": false,
          "internalType": "bytes"
        }
      ],
      "anonymous": false
    },
    {
      "type": "event",
      "name": "FunctionRevoked",
      "inputs": [
        {
          "name": "agentId",
          "type": "bytes32",
          "indexed": true,
          "internalType": "bytes32"
        },
        {
          "name": "targetContract",
          "type": "address",
          "indexed": true,
          "internalType": "address"
        },
        {
          "name": "functionSelector",
          "type": "bytes4",
          "indexed": false,
          "internalType": "bytes4"
        }
      ],
      "anonymous": false
    },
    {
      "type": "event",
      "name": "OwnershipTransferred",
      "inputs": [
        {
          "name": "previousOwner",
          "type": "address",
          "indexed": true,
          "internalType": "address"
        },
        {
          "name": "newOwner",
          "type": "address",
          "indexed": true,
          "internalType": "address"
        }
      ],
      "anonymous": false
    },
    {
      "type": "event",
      "name": "Paused",
      "inputs": [
        {
          "name": "account",
          "type": "address",
          "indexed": false,
          "internalType": "address"
        }
      ],
      "anonymous": false
    },
    {
      "type": "event",
      "name": "ProtocolFeeUpdated",
      "inputs": [
        {
          "name": "newFeeBps",
          "type": "uint256",
          "indexed": false,
          "internalType": "uint256"
        }
      ],
      "anonymous": false
    },
    {
      "type": "event",
      "name": "QueryExecuted",
      "inputs": [
        {
          "name": "agentId",
          "type": "bytes32",
          "indexed": true,
          "internalType": "bytes32"
        },
        {
          "name": "user",
          "type": "address",
          "indexed": true,
          "internalType": "address"
        },
        {
          "name": "targetContract",
          "type": "address",
          "indexed": true,
          "internalType": "address"
        },
        {
          "name": "functionSelector",
          "type": "bytes4",
          "indexed": false,
          "internalType": "bytes4"
        },
        {
          "name": "returnData",
          "type": "bytes",
          "indexed": false,
          "internalType": "bytes"
        }
      ],
      "anonymous": false
    },
    {
      "type": "event",
      "name": "RateLimitExceeded",
      "inputs": [
        {
          "name": "user",
          "type": "address",
          "indexed": true,
          "internalType": "address"
        },
        {
          "name": "agentId",
          "type": "bytes32",
          "indexed": true,
          "internalType": "bytes32"
        }
      ],
      "anonymous": false
    },
    {
      "type": "event",
      "name": "TransactionValidated",
      "inputs": [
        {
          "name": "agentId",
          "type": "bytes32",
          "indexed": true,
          "internalType": "bytes32"
        },
        {
          "name": "user",
          "type": "address",
          "indexed": true,
          "internalType": "address"
        },
        {
          "name": "txHash",
          "type": "bytes32",
          "indexed": false,
          "internalType": "bytes32"
        }
      ],
      "anonymous": false
    },
    {
      "type": "event",
      "name": "Unpaused",
      "inputs": [
        {
          "name": "account",
          "type": "address",
          "indexed": false,
          "internalType": "address"
        }
      ],
      "anonymous": false
    },
    {
      "type": "error",
      "name": "AgentNotActive",
      "inputs": []
    },
    {
      "type": "error",
      "name": "EnforcedPause",
      "inputs": []
    },
    {
      "type": "error",
      "name": "ExecutionFailed",
      "inputs": [
        {
          "name": "returnData",
          "type": "bytes",
          "internalType": "bytes"
        }
      ]
    },
    {
      "type": "error",
      "name": "ExpectedPause",
      "inputs": []
    },
    {
      "type": "error",
      "name": "FeeTooHigh",
      "inputs": []
    },
    {
      "type": "error",
      "name": "FunctionNotAuthorized",
      "inputs": []
    },
    {
      "type": "error",
      "name": "InvalidFeeCollector",
      "inputs": []
    },
    {
      "type": "error",
      "name": "InvalidTarget",
      "inputs": []
    },
    {
      "type": "error",
      "name": "NotAgentOwner",
      "inputs": []
    },
    {
      "type": "error",
      "name": "OwnableInvalidOwner",
      "inputs": [
        {
          "name": "owner",
          "type": "address",
          "internalType": "address"
        }
      ]
    },
    {
      "type": "error",
      "name": "OwnableUnauthorizedAccount",
      "inputs": [
        {
          "name": "account",
          "type": "address",
          "internalType": "address"
        }
      ]
    },
    {
      "type": "error",
      "name": "RateLimitExceededError",
      "inputs": []
    },
    {
      "type": "error",
      "name": "ReentrancyGuardReentrantCall",
      "inputs": []
    },
    {
      "type": "error",
      "name": "Unauthorized",
      "inputs": []
    }
  ],
  "bytecode": {
    "object": "0x60a03461016657601f611a9f38819003918201601f19168301916001600160401b0383118484101761016a57808492604094855283398101031261016657610052602061004b8361017e565b920161017e565b903315610153575f8054336001600160a01b0319821681178355604051949290916001600160a01b0316907f8be0079c531659141344cd1fd0a4f28419497f9722a3daafe3b4186f6b6457e09080a360018055600254600a600355916001600160a01b03168015610144576001600160a01b03821615610135576080526001600160a81b031990911660089190911b610100600160a81b03161760025561190c908161019382396080518181816103fd0152818161078a015281816108eb01528181610a4401528181610c1901528181611235015281816112c901526116c30152f35b63bb0bac9960e01b5f5260045ffd5b63416aebb560e11b5f5260045ffd5b631e4fbdf760e01b5f525f60045260245ffd5b5f80fd5b634e487b7160e01b5f52604160045260245ffd5b51906001600160a01b03821682036101665756fe60806040526004361015610011575f80fd5b5f3560e01c80630934fffa1461106357806309d6cea1146112645780630d1cfcae146112205780631833f0cf146110dc57806318a90692146110b25780631ca0347d1461106357806335659fb8146110465780633f4ba83a14610fe05780633ffd56fd14610be357806340ed556514610b57578063525a46b4146109c657806353bacc70146108bd5780635c975abb1461089b5780635e0b31e91461087157806366523f7d1461075c5780637130dfc914610740578063715018a6146106e9578063787dce3d146106845780637e27ace0146106615780638456cb591461060857806385b71e4e146105ed5780638da5cb5b146105c65780638fb40e34146103d3578063a42dce801461033f578063a6329c7f146102bd578063ae3d22ff14610280578063b5377c211461020d578063c415b95c146101e15763f2fde38b14610158575f80fd5b346101dd5760203660031901126101dd576101716114ab565b610179611895565b6001600160a01b031680156101ca575f80546001600160a01b03198116831782556001600160a01b0316907f8be0079c531659141344cd1fd0a4f28419497f9722a3daafe3b4186f6b6457e09080a3005b631e4fbdf760e01b5f525f60045260245ffd5b5f80fd5b346101dd575f3660031901126101dd5760025460405160089190911c6001600160a01b03168152602090f35b346101dd5760203660031901126101dd576004355f90815260056020908152604080832054600690925290912054908015806102755761026157818160609304905b60405192835260208301526040820152f35b634e487b7160e01b5f52601260045260245ffd5b506060915f9061024f565b346101dd5760203660031901126101dd576001600160a01b036102a16114ab565b165f526009602052602060ff60405f2054166040519015158152f35b346101dd5760403660031901126101dd576024356004355f52600460205260405f2080548210156101dd5760a0916102f491611589565b5080549060018101549060ff60036002830154920154169160405193600180871b038116855263ffffffff60e01b9060401b1660208501526040840152606083015215156080820152f35b346101dd5760203660031901126101dd576103586114ab565b610360611895565b6001600160a01b0381169081156103c45760028054610100600160a81b03191660089290921b610100600160a81b03169190911790556040519081527fe5693914d19c789bdee50a362998c0bc8d035a835f9871da5d51152f0582c34f90602090a1005b63bb0bac9960e01b5f5260045ffd5b346101dd576103e1366114fc565b604051638a92792b60e01b8152600481018590529093919291907f00000000000000000000000000000000000000000000000000000000000000006001600160a01b031690602081602481855afa90811561057d575f91610597575b50156105885760206024916040519283809262b55fc760e41b82528660048301525afa90811561057d575f9161054e575b506001600160a01b0383811691160361053f57836004116101dd575f9081526007602090815260408083206001600160a01b0385168452825280832085356001600160e01b031916845290915290205460ff161561053057825f939284936040519283928337810184815203915afa6104e5611638565b90156105075761050390604051918291602083526020830190611565565b0390f35b6040516315fcd67560e01b81526020600482015290819061052c906024830190611565565b0390fd5b637bf0db1360e01b5f5260045ffd5b63416aebb560e11b5f5260045ffd5b610570915060203d602011610576575b61056881836115d2565b81019061160c565b8561046e565b503d61055e565b6040513d5f823e3d90fd5b632437e77160e11b5f5260045ffd5b6105b9915060203d6020116105bf575b6105b181836115d2565b8101906115f4565b8661043d565b503d6105a7565b346101dd575f3660031901126101dd575f546040516001600160a01b039091168152602090f35b346101dd575f3660031901126101dd57602060405160648152f35b346101dd575f3660031901126101dd57610620611895565b6106286118bb565b600160ff1960025416176002557f62e78cea01bee320cd4e420270b5ea74000d11b0c9f74754ebdbfc544b05a2586020604051338152a1005b346101dd57602061067a610674366114c1565b916116a9565b6040519015158152f35b346101dd5760203660031901126101dd576004356106a0611895565b6101f481116106da576020817fd10d75876659a287a59a6ccfa2e3fff42f84d94b542837acd30bc184d562de4092600355604051908152a1005b63cd4e616760e01b5f5260045ffd5b346101dd575f3660031901126101dd57610701611895565b5f80546001600160a01b0319811682556001600160a01b03167f8be0079c531659141344cd1fd0a4f28419497f9722a3daafe3b4186f6b6457e08280a3005b346101dd575f3660031901126101dd576020604051610e108152f35b346101dd5761076a366114c1565b60405163d61fed1360e01b815260048101849052909291906020816024817f00000000000000000000000000000000000000000000000000000000000000006001600160a01b03165afa90811561057d575f91610852575b50336001600160a01b0390911603610843575f8281526007602090815260408083206001600160a01b039094168084529382528083206001600160e01b031990961680845295825291829020805460ff19169055905193845290927fe1d4e544d966ddc3b93b002c02729be3f590ffe660ed6981d5b624bd3a2d981c9190a3005b630e41dcbf60e21b5f5260045ffd5b61086b915060203d6020116105765761056881836115d2565b846107c2565b346101dd5760203660031901126101dd576004355f526006602052602060405f2054604051908152f35b346101dd575f3660031901126101dd57602060ff600254166040519015158152f35b346101dd576108cb366114c1565b60405163d61fed1360e01b815260048101849052909291906020816024817f00000000000000000000000000000000000000000000000000000000000000006001600160a01b03165afa90811561057d575f916109a7575b50336001600160a01b0390911603610843575f8281526007602090815260408083206001600160a01b039094168084529382528083206001600160e01b031990961680845295825291829020805460ff19166001179055905193845290927fe9de25100ec576c579a628da89de45fa1d48d6cea1ccb7af5e2fc678c9d53d1b9190a3005b6109c0915060203d6020116105765761056881836115d2565b84610923565b346101dd5760603660031901126101dd576004356109e2611495565b60443567ffffffffffffffff81116101dd57366023820112156101dd5780600401359267ffffffffffffffff84116101dd576024820191602436918660051b0101116101dd5760405163d61fed1360e01b8152600481018290526020816024817f00000000000000000000000000000000000000000000000000000000000000006001600160a01b03165afa90811561057d575f91610b38575b50336001600160a01b03909116036108435790916001600160a01b0316905f5b848110610aa557005b600190825f52600760205260405f20845f5260205260405f2063ffffffff60e01b610ad9610ad4848a8a611684565b611694565b165f5260205260405f208260ff1982541617905583837fe9de25100ec576c579a628da89de45fa1d48d6cea1ccb7af5e2fc678c9d53d1b6020610b20610ad4868c8c611684565b6040516001600160e01b03199091168152a301610a9c565b610b51915060203d6020116105765761056881836115d2565b85610a7c565b346101dd5760403660031901126101dd57610b706114ab565b60018060a01b03165f52600860205260405f206024355f5260205260405f206001810154905490610e108201809211610bcf57606091428111610bc4575f905b604051928352602083015215156040820152f35b606482101590610bb0565b634e487b7160e01b5f52601160045260245ffd5b610bec366114fc565b90610bf893929361181b565b610c006118bb565b5a604051638a92792b60e01b81526004810185905290947f00000000000000000000000000000000000000000000000000000000000000006001600160a01b0316939091602081602481885afa90811561057d575f91610fc1575b50156105885760206024946040519586809262b55fc760e41b82528960048301525afa93841561057d575f94610fa0575b506001600160a01b03828116941684900361053f57806004116101dd5763ffffffff60e01b83351692855f52600760205260405f20855f5260205260405f20845f5260205260ff60405f2054161561053057335f52600860205260405f20865f5260205260405f208054610e108101809111610bcf574210610f58575b50349034158015610ec6575b50915f93918493826040519384928337810185815203925af192610d42610d3a611638565b955a9061162b565b815f52600460205260405f2090604051610d5b816115b6565b338152602081019085825260408101904282526060810198848a52608082019015998a15968783528054600160401b811015610eb257610da091600182018155611589565b949094610e9f5792518454955163ffffffff60a01b604091821c166001600160a01b039092166001600160c01b0319909716969096171784559151600184015590516002830155516003909101805460ff191691151560ff169190911790555f8481526005602052208054610e149061183b565b9055825f526006602052610e2d60405f20918254611677565b9055610e398233611849565b6040519283526020830152606060408301527ff7091769a2bf3a630d43365fb29e109c3bd10545be83a7550b9d7ecb35f34d73339280610e7c6060820189611565565b0390a4610507576105039060018055604051918291602083526020830190611565565b634e487b7160e01b5f525f60045260245ffd5b634e487b7160e01b5f52604160045260245ffd5b90929391506003549081340291348304141715610bcf576127109004925f808080610ef1883461162b565b60025490989060081c6001600160a01b03165af1610f0d611638565b5015610f1d579188939193610d15565b60405162461bcd60e51b8152602060048201526013602482015272119959481d1c985b9cd9995c8819985a5b1959606a1b6044820152606490fd5b600160649101541015610f6b5787610d09565b85337f48110a6b7340549bd478fcf8f502cfe9c13e8aa1dee5c4ce958bb055535d37fe5f80a3637f278cc160e01b5f5260045ffd5b610fba91945060203d6020116105765761056881836115d2565b9286610c8c565b610fda915060203d6020116105bf576105b181836115d2565b87610c5b565b346101dd575f3660031901126101dd57610ff8611895565b60025460ff8116156110375760ff19166002557f5db9ee0a495bf2e6ff9c91a7834c1ba4fdd244a5e8aa4e537bd38aeae4b073aa6020604051338152a1005b638dfc202b60e01b5f5260045ffd5b346101dd575f3660031901126101dd576020600354604051908152f35b346101dd57611071366114c1565b915f52600760205260405f209060018060a01b03165f5260205260405f209063ffffffff60e01b165f52602052602060ff60405f2054166040519015158152f35b346101dd5760203660031901126101dd576004355f526005602052602060405f2054604051908152f35b346101dd5760203660031901126101dd576004355f52600460205260405f2080549067ffffffffffffffff8211610eb2576040519161112160208260051b01846115d2565b8083526020830180925f5260205f205f915b8383106111c0578486604051918291602083019060208452518091526040830191905f5b818110611165575050500390f35b825180516001600160a01b031685526020818101516001600160e01b03191681870152604080830151908701526060808301519087015260809182015115159186019190915286955060a09094019390920191600101611157565b600460206001926040516111d3816115b6565b8554858060a01b038116825263ffffffff60e01b9060401b16838201528486015460408201526002860154606082015260ff60038701541615156080820152815201920192019190611133565b346101dd575f3660031901126101dd576040517f00000000000000000000000000000000000000000000000000000000000000006001600160a01b03168152602090f35b346101dd5760a03660031901126101dd57600435611280611495565b6044359063ffffffff60e01b82168092036101dd576064358015158091036101dd576084356112ad61181b565b604051638a92792b60e01b8152600481018690526020816024817f00000000000000000000000000000000000000000000000000000000000000006001600160a01b03165afa90811561057d575f91611476575b501561058857845f52600760205260405f2060018060a01b0384165f5260205260405f20845f5260205260ff60405f2054161561053057845f52600460205260405f2060405190611351826115b6565b338252602082019186835260408101914283526060820185815260808301918783528054600160401b811015610eb25761139091600182018155611589565b949094610e9f5792518454955163ffffffff60a01b604091821c166001600160a01b039092166001600160c01b0319909716969096171784559151600184015590516002830155516003909101805460ff191691151560ff169190911790555f86815260056020522080546114049061183b565b9055845f52600660205261141d60405f20918254611677565b90556114298433611849565b6040519283526020830152606060408301525f606083015260018060a01b0316917ff7091769a2bf3a630d43365fb29e109c3bd10545be83a7550b9d7ecb35f34d7360803393a460018055005b61148f915060203d6020116105bf576105b181836115d2565b86611301565b602435906001600160a01b03821682036101dd57565b600435906001600160a01b03821682036101dd57565b60609060031901126101dd57600435906024356001600160a01b03811681036101dd57906044356001600160e01b0319811681036101dd5790565b9060606003198301126101dd57600435916024356001600160a01b03811681036101dd579160443567ffffffffffffffff81116101dd57826023820112156101dd5780600401359267ffffffffffffffff84116101dd57602484830101116101dd576024019190565b805180835260209291819084018484015e5f828201840152601f01601f1916010190565b80548210156115a2575f5260205f209060021b01905f90565b634e487b7160e01b5f52603260045260245ffd5b60a0810190811067ffffffffffffffff821117610eb257604052565b90601f8019910116810190811067ffffffffffffffff821117610eb257604052565b908160209103126101dd575180151581036101dd5790565b908160209103126101dd57516001600160a01b03811681036101dd5790565b91908203918211610bcf57565b3d15611672573d9067ffffffffffffffff8211610eb25760405191611667601f8201601f1916602001846115d2565b82523d5f602084013e565b606090565b91908201809211610bcf57565b91908110156115a25760051b0190565b356001600160e01b0319811681036101dd5790565b604051638a92792b60e01b815260048101829052909291907f00000000000000000000000000000000000000000000000000000000000000006001600160a01b031690602081602481855afa90811561057d575f916117fc575b50156117f45760206024916040519283809262b55fc760e41b82528860048301525afa90811561057d575f916117d5575b506001600160a01b038281169116036117ce57825f52600760205260405f209060018060a01b03165f5260205260405f209063ffffffff60e01b165f5260205260ff60405f205416156117c957335f52600860205260405f20905f5260205260405f208054610e108101809111610bcf5742106117b2575b50600190565b6001606491015410156117c5575f6117ac565b5f90565b505f90565b5050505f90565b6117ee915060203d6020116105765761056881836115d2565b5f611734565b505050505f90565b611815915060203d6020116105bf576105b181836115d2565b5f611703565b60026001541461182c576002600155565b633ee5aeb560e01b5f5260045ffd5b5f198114610bcf5760010190565b60018060a01b03165f52600860205260405f20905f5260205260405f20805490610e108201809211610bcf57600191421061188657428155810155565b01611891815461183b565b9055565b5f546001600160a01b031633036118a857565b63118cdaa760e01b5f523360045260245ffd5b60ff600254166118c757565b63d93c066560e01b5f5260045ffdfea264697066735822122028507746ce77b363d14a84071faef201dcbfb7f9cd8d0c4abd609e5936fda7f064736f6c634300081c0033",
    "linkReferences": {}
  },
  "methodIdentifiers": {
    "MAX_CALLS_PER_WINDOW()": "85b71e4e",
    "RATE_LIMIT_WINDOW()": "7130dfc9",
    "agentCallCount(bytes32)": "18a90692",
    "agentGasUsed(bytes32)": "5e0b31e9",
    "agentRegistry()": "0d1cfcae",
    "authorizeFunction(bytes32,address,bytes4)": "53bacc70",
    "authorizedFunctions(bytes32,address,bytes4)": "1ca0347d",
    "batchAuthorize(bytes32,address,bytes4[])": "525a46b4",
    "executeOnTarget(bytes32,address,bytes)": "3ffd56fd",
    "executionHistory(bytes32,uint256)": "a6329c7f",
    "feeCollector()": "c415b95c",
    "getAgentAnalytics(bytes32)": "b5377c21",
    "getExecutionHistory(bytes32)": "1833f0cf",
    "getRateLimitInfo(address,bytes32)": "40ed5565",
    "isFunctionAuthorized(bytes32,address,bytes4)": "0934fffa",
    "owner()": "8da5cb5b",
    "pause()": "8456cb59",
    "paused()": "5c975abb",
    "protocolFeeBps()": "35659fb8",
    "queryTarget(bytes32,address,bytes)": "8fb40e34",
    "recordTransaction(bytes32,address,bytes4,bool,uint256)": "09d6cea1",
    "renounceOwnership()": "715018a6",
    "revokeFunction(bytes32,address,bytes4)": "66523f7d",
    "setFeeCollector(address)": "a42dce80",
    "setProtocolFee(uint256)": "787dce3d",
    "transferOwnership(address)": "f2fde38b",
    "trustedCallers(address)": "ae3d22ff",
    "unpause()": "3f4ba83a",
    "validateTransaction(bytes32,address,bytes4)": "7e27ace0"
  },
  "id": 30
}