{
  "abi": [
    {
      "type": "constructor",
      "inputs": [
        {
          "name": "_stakingToken",
          "type": "address",
          "internalType": "address"
        },
        {
          "name": "_hub",
          "type": "address",
          "internalType": "address"
        }
      ],
      "stateMutability": "nonpayable"
    },
    {
      "type": "function",
      "name": "APY",
      "inputs": [],
      "outputs": [
        {
          "name": "",
          "type": "uint256",
          "internalType": "uint256"
        }
      ],
      "stateMutability": "view"
    },
    {
      "type": "function",
      "name": "SECONDS_PER_YEAR",
      "inputs": [],
      "outputs": [
        {
          "name": "",
          "type": "uint256",
          "internalType": "uint256"
        }
      ],
      "stateMutability": "view"
    },
    {
      "type": "function",
      "name": "balanceOf",
      "inputs": [
        {
          "name": "user",
          "type": "address",
          "internalType": "address"
        }
      ],
      "outputs": [
        {
          "name": "",
          "type": "uint256",
          "internalType": "uint256"
        }
      ],
      "stateMutability": "view"
    },
    {
      "type": "function",
      "name": "claimRewards",
      "inputs": [],
      "outputs": [],
      "stateMutability": "nonpayable"
    },
    {
      "type": "function",
      "name": "fundRewardsPool",
      "inputs": [
        {
          "name": "amount",
          "type": "uint256",
          "internalType": "uint256"
        }
      ],
      "outputs": [],
      "stateMutability": "nonpayable"
    },
    {
      "type": "function",
      "name": "getCurrentAPY",
      "inputs": [],
      "outputs": [
        {
          "name": "",
          "type": "uint256",
          "internalType": "uint256"
        }
      ],
      "stateMutability": "pure"
    },
    {
      "type": "function",
      "name": "getStakeInfo",
      "inputs": [
        {
          "name": "user",
          "type": "address",
          "internalType": "address"
        }
      ],
      "outputs": [
        {
          "name": "stakedAmount",
          "type": "uint256",
          "internalType": "uint256"
        },
        {
          "name": "rewards",
          "type": "uint256",
          "internalType": "uint256"
        },
        {
          "name": "stakingDuration",
          "type": "uint256",
          "internalType": "uint256"
        },
        {
          "name": "apy",
          "type": "uint256",
          "internalType": "uint256"
        }
      ],
      "stateMutability": "view"
    },
    {
      "type": "function",
      "name": "getTVL",
      "inputs": [],
      "outputs": [
        {
          "name": "",
          "type": "uint256",
          "internalType": "uint256"
        }
      ],
      "stateMutability": "view"
    },
    {
      "type": "function",
      "name": "hubModeEnabled",
      "inputs": [],
      "outputs": [
        {
          "name": "",
          "type": "bool",
          "internalType": "bool"
        }
      ],
      "stateMutability": "view"
    },
    {
      "type": "function",
      "name": "owner",
      "inputs": [],
      "outputs": [
        {
          "name": "",
          "type": "address",
          "internalType": "address"
        }
      ],
      "stateMutability": "view"
    },
    {
      "type": "function",
      "name": "pendingRewards",
      "inputs": [
        {
          "name": "user",
          "type": "address",
          "internalType": "address"
        }
      ],
      "outputs": [
        {
          "name": "",
          "type": "uint256",
          "internalType": "uint256"
        }
      ],
      "stateMutability": "view"
    },
    {
      "type": "function",
      "name": "renounceOwnership",
      "inputs": [],
      "outputs": [],
      "stateMutability": "nonpayable"
    },
    {
      "type": "function",
      "name": "setHubMode",
      "inputs": [
        {
          "name": "enabled",
          "type": "bool",
          "internalType": "bool"
        }
      ],
      "outputs": [],
      "stateMutability": "nonpayable"
    },
    {
      "type": "function",
      "name": "setTrustedHub",
      "inputs": [
        {
          "name": "newHub",
          "type": "address",
          "internalType": "address"
        }
      ],
      "outputs": [],
      "stateMutability": "nonpayable"
    },
    {
      "type": "function",
      "name": "stake",
      "inputs": [
        {
          "name": "amount",
          "type": "uint256",
          "internalType": "uint256"
        }
      ],
      "outputs": [],
      "stateMutability": "nonpayable"
    },
    {
      "type": "function",
      "name": "stakes",
      "inputs": [
        {
          "name": "",
          "type": "address",
          "internalType": "address"
        }
      ],
      "outputs": [
        {
          "name": "amount",
          "type": "uint256",
          "internalType": "uint256"
        },
        {
          "name": "startTime",
          "type": "uint256",
          "internalType": "uint256"
        },
        {
          "name": "lastClaimTime",
          "type": "uint256",
          "internalType": "uint256"
        },
        {
          "name": "totalRewardsClaimed",
          "type": "uint256",
          "internalType": "uint256"
        }
      ],
      "stateMutability": "view"
    },
    {
      "type": "function",
      "name": "stakingToken",
      "inputs": [],
      "outputs": [
        {
          "name": "",
          "type": "address",
          "internalType": "contract IERC20"
        }
      ],
      "stateMutability": "view"
    },
    {
      "type": "function",
      "name": "totalStaked",
      "inputs": [],
      "outputs": [
        {
          "name": "",
          "type": "uint256",
          "internalType": "uint256"
        }
      ],
      "stateMutability": "view"
    },
    {
      "type": "function",
      "name": "transferOwnership",
      "inputs": [
        {
          "name": "newOwner",
          "type": "address",
          "internalType": "address"
        }
      ],
      "outputs": [],
      "stateMutability": "nonpayable"
    },
    {
      "type": "function",
      "name": "trustedHub",
      "inputs": [],
      "outputs": [
        {
          "name": "",
          "type": "address",
          "internalType": "address"
        }
      ],
      "stateMutability": "view"
    },
    {
      "type": "function",
      "name": "withdraw",
      "inputs": [
        {
          "name": "amount",
          "type": "uint256",
          "internalType": "uint256"
        }
      ],
      "outputs": [],
      "stateMutability": "nonpayable"
    },
    {
      "type": "event",
      "name": "HubUpdated",
      "inputs": [
        {
          "name": "hub",
          "type": "address",
          "indexed": true,
          "internalType": "address"
        },
        {
          "name": "enabled",
          "type": "bool",
          "indexed": false,
          "internalType": "bool"
        }
      ],
      "anonymous": false
    },
    {
      "type": "event",
      "name": "OwnershipTransferred",
      "inputs": [
        {
          "name": "previousOwner",
          "type": "address",
          "indexed": true,
          "internalType": "address"
        },
        {
          "name": "newOwner",
          "type": "address",
          "indexed": true,
          "internalType": "address"
        }
      ],
      "anonymous": false
    },
    {
      "type": "event",
      "name": "RewardsClaimed",
      "inputs": [
        {
          "name": "user",
          "type": "address",
          "indexed": true,
          "internalType": "address"
        },
        {
          "name": "amount",
          "type": "uint256",
          "indexed": false,
          "internalType": "uint256"
        }
      ],
      "anonymous": false
    },
    {
      "type": "event",
      "name": "Staked",
      "inputs": [
        {
          "name": "user",
          "type": "address",
          "indexed": true,
          "internalType": "address"
        },
        {
          "name": "amount",
          "type": "uint256",
          "indexed": false,
          "internalType": "uint256"
        }
      ],
      "anonymous": false
    },
    {
      "type": "event",
      "name": "Withdrawn",
      "inputs": [
        {
          "name": "user",
          "type": "address",
          "indexed": true,
          "internalType": "address"
        },
        {
          "name": "amount",
          "type": "uint256",
          "indexed": false,
          "internalType": "uint256"
        }
      ],
      "anonymous": false
    },
    {
      "type": "error",
      "name": "InsufficientStake",
      "inputs": []
    },
    {
      "type": "error",
      "name": "InvalidAmount",
      "inputs": []
    },
    {
      "type": "error",
      "name": "InvalidHub",
      "inputs": []
    },
    {
      "type": "error",
      "name": "NoRewards",
      "inputs": []
    },
    {
      "type": "error",
      "name": "NotAuthorized",
      "inputs": []
    },
    {
      "type": "error",
      "name": "OwnableInvalidOwner",
      "inputs": [
        {
          "name": "owner",
          "type": "address",
          "internalType": "address"
        }
      ]
    },
    {
      "type": "error",
      "name": "OwnableUnauthorizedAccount",
      "inputs": [
        {
          "name": "account",
          "type": "address",
          "internalType": "address"
        }
      ]
    },
    {
      "type": "error",
      "name": "ReentrancyGuardReentrantCall",
      "inputs": []
    },
    {
      "type": "error",
      "name": "TransferFailed",
      "inputs": []
    }
  ],
  "bytecode": {
    "object": "0x60a03461012e57601f610dec38819003918201601f19168301916001600160401b0383118484101761013257808492604094855283398101031261012e57610052602061004b83610146565b9201610146565b60015f55331561011b5760018054336001600160a01b0319821681179092556040519391906001600160a01b03167f8be0079c531659141344cd1fd0a4f28419497f9722a3daafe3b4186f6b6457e05f80a36001600160a01b0316801561010c57608052600480546001600160a81b0319166001600160a01b0390921691909117600160a01b179055610c91908161015b823960805181818161034d015281816105a30152818161088e01528181610a150152610bcd0152f35b63162908e360e11b5f5260045ffd5b631e4fbdf760e01b5f525f60045260245ffd5b5f80fd5b634e487b7160e01b5f52604160045260245ffd5b51906001600160a01b038216820361012e5756fe60806040526004361015610011575f80fd5b5f3560e01c806312c7239b1461071357806316934fc4146106b55780631d735560146106245780632c4eb8b2146105565780632e1a7d4d146104e557806331d7a262146104ae578063372500ab146104385780636e688ebf1461041357806370a08231146103d7578063715018a61461037c57806372f702f314610338578063817b1cd2146102f35780638da5cb5b14610310578063962ca4961461018e57806397b3fcaa146102f3578063a694fc3a14610268578063c3453153146101f0578063e28bec39146101c8578063e6a69ab8146101aa578063ef8bd3051461018e5763f2fde38b14610100575f80fd5b3461018a57602036600319011261018a576004356001600160a01b0381169081900361018a5761012e610ae1565b801561017757600180546001600160a01b0319811683179091556001600160a01b03167f8be0079c531659141344cd1fd0a4f28419497f9722a3daafe3b4186f6b6457e05f80a3005b631e4fbdf760e01b5f525f60045260245ffd5b5f80fd5b3461018a575f36600319011261018a5760206040516104e28152f35b3461018a575f36600319011261018a5760206040516301e133808152f35b3461018a575f36600319011261018a576004546040516001600160a01b039091168152602090f35b3461018a57602036600319011261018a576004356001600160a01b0381169081810361018a576080915f52600260205260405f2061022f815492610936565b908215610260576001610244910154426107da565b905b604051928352602083015260408201526104e26060820152f35b505f90610246565b3461018a57602036600319011261018a57600435610284610b08565b60045460ff8160a01c1690816102e0575b50156102aa576102a4906109a6565b60015f55005b6001600160a01b036102ba610b26565b1633145f146102d1576102cc906109a6565b6102a4565b63ea8e4eb560e01b5f5260045ffd5b6001600160a01b03163314905082610295565b3461018a575f36600319011261018a576020600354604051908152f35b3461018a575f36600319011261018a576001546040516001600160a01b039091168152602090f35b3461018a575f36600319011261018a576040517f00000000000000000000000000000000000000000000000000000000000000006001600160a01b03168152602090f35b3461018a575f36600319011261018a57610394610ae1565b600180546001600160a01b031981169091555f906001600160a01b03167f8be0079c531659141344cd1fd0a4f28419497f9722a3daafe3b4186f6b6457e08280a3005b3461018a57602036600319011261018a576004356001600160a01b0381169081900361018a575f526002602052602060405f2054604051908152f35b3461018a575f36600319011261018a57602060ff60045460a01c166040519015158152f35b3461018a575f36600319011261018a57610450610b08565b60045460ff8160a01c16908161049b575b5015610477576102a4610472610b26565b610b57565b6001600160a01b03610487610b26565b1633145f146102d1576102cc610472610b26565b6001600160a01b03163314905081610461565b3461018a57602036600319011261018a576004356001600160a01b038116810361018a576104dd602091610936565b604051908152f35b3461018a57602036600319011261018a57600435610501610b08565b60045460ff8160a01c169081610543575b5015610521576102a4906107fb565b6001600160a01b03610531610b26565b1633145f146102d1576102cc906107fb565b6001600160a01b03163314905082610512565b3461018a57602036600319011261018a5761056f610ae1565b6040516323b872dd60e01b8152336004808301919091523060248301523560448201526020816064815f6001600160a01b037f0000000000000000000000000000000000000000000000000000000000000000165af1908115610619575f916105ea575b50156105db57005b6312171d8360e31b5f5260045ffd5b61060c915060203d602011610612575b610604818361078c565b8101906107c2565b816105d3565b503d6105fa565b6040513d5f823e3d90fd5b3461018a57602036600319011261018a576004356001600160a01b0381169081900361018a57610652610ae1565b80156106a6577fda140ea98a87592f46c641d115d7e83335f1593966bed4d810a3b3bd1ef960146020826bffffffffffffffffffffffff60a01b60045416178060045560ff6040519160a01c1615158152a2005b630722710b60e51b5f5260045ffd5b3461018a57602036600319011261018a576004356001600160a01b0381169081900361018a575f526002602052608060405f208054906001810154906003600282015491015491604051938452602084015260408301526060820152f35b3461018a57602036600319011261018a5760043580151580910361018a57610739610ae1565b6004805460ff60a01b19811660a084901b60ff60a01b16179091556040519182526001600160a01b0316907fda140ea98a87592f46c641d115d7e83335f1593966bed4d810a3b3bd1ef9601490602090a2005b90601f8019910116810190811067ffffffffffffffff8211176107ae57604052565b634e487b7160e01b5f52604160045260245ffd5b9081602091031261018a5751801515810361018a5790565b919082039182116107e757565b634e487b7160e01b5f52601160045260245ffd5b610803610b26565b6001600160a01b0381165f818152600260205260409020909291821561092757828254106109185782816108899361083c602094610b57565b6108478382546107da565b9055610855826003546107da565b60035560405163a9059cbb60e01b81526001600160a01b039091166004820152602481019190915291829081906044820190565b03815f7f00000000000000000000000000000000000000000000000000000000000000006001600160a01b03165af1908115610619575f916108f9575b50156105db5760207f7084f5476618d8e60b11ef0d7d3f06914655adb8793e28ff7f018d4c76d505d591604051908152a2565b610912915060203d60201161061257610604818361078c565b5f6108c6565b6378de4a6960e11b5f5260045ffd5b63162908e360e11b5f5260045ffd5b6001600160a01b03165f9081526002602052604090208054908115610993576002610963910154426107da565b906104e28102908082046104e2036107e75782026104e2029181159183041417156107e75764496cebb800900490565b50505f90565b919082018092116107e757565b8015610927576109b4610b26565b9060018060a01b03821691825f526002602052610a1060208360405f20938454610ad3575b6040516323b872dd60e01b81526001600160a01b039091166004820152306024820152604481019190915291829081906064820190565b03815f7f00000000000000000000000000000000000000000000000000000000000000006001600160a01b03165af1908115610619575f91610ab4575b50156105db578181610a897f9e71bc8eea02a63969f509818f2dafb9254532904319f9dbda79b67bd34a5f3d94602094548015610aa957610999565b8155600242910155610a9d81600354610999565b600355604051908152a2565b426001850155610999565b610acd915060203d60201161061257610604818361078c565b5f610a4d565b610adc81610b57565b6109d9565b6001546001600160a01b03163303610af557565b63118cdaa760e01b5f523360045260245ffd5b60025f5414610b175760025f55565b633ee5aeb560e01b5f5260045ffd5b60045460ff8160a01c169081610b44575b50610b40573390565b3290565b6001600160a01b0316331490505f610b37565b610b6081610936565b8015610c5757610bc860208260018060a01b03851694855f5260028352600360405f2042600282015501610b95838254610999565b905560405163a9059cbb60e01b81526001600160a01b039091166004820152602481019190915291829081906044820190565b03815f7f00000000000000000000000000000000000000000000000000000000000000006001600160a01b03165af1908115610619575f91610c38575b50156105db5760207ffc30cddea38e2bf4d6ea7d3f9ed3b6ad7f176419f4963bd81318067a4aee73fe91604051908152a2565b610c51915060203d60201161061257610604818361078c565b5f610c05565b505056fea264697066735822122049c9aeb644f241bc8b342bc8b65f5edac484be9868df3433234c3a1fb60a435b64736f6c634300081c0033",
    "linkReferences": {}
  },
  "methodIdentifiers": {
    "APY()": "ef8bd305",
    "SECONDS_PER_YEAR()": "e6a69ab8",
    "balanceOf(address)": "70a08231",
    "claimRewards()": "372500ab",
    "fundRewardsPool(uint256)": "2c4eb8b2",
    "getCurrentAPY()": "962ca496",
    "getStakeInfo(address)": "c3453153",
    "getTVL()": "97b3fcaa",
    "hubModeEnabled()": "6e688ebf",
    "owner()": "8da5cb5b",
    "pendingRewards(address)": "31d7a262",
    "renounceOwnership()": "715018a6",
    "setHubMode(bool)": "12c7239b",
    "setTrustedHub(address)": "1d735560",
    "stake(uint256)": "a694fc3a",
    "stakes(address)": "16934fc4",
    "stakingToken()": "72f702f3",
    "totalStaked()": "817b1cd2",
    "transferOwnership(address)": "f2fde38b",
    "trustedHub()": "e28bec39",
    "withdraw(uint256)": "2e1a7d4d"
  },
  "id": 31
}